:020000021000EC
:1080000000800020E5ED01002DEE01002FEE0100C3
:108010000000000000000000000000000000000060
:1080200000000000000000000000000031EE010030
:10803000000000000000000033EE010035EE0100FA
:1080400037EE010037EE0100A9B8010037EE01005C
:1080500037EE01000000000075C2010037EE01009C
:1080600037EE01001DCE0100DDCE010037EE01002C
:1080700037EE010037EE010037EE010037EE010068
:1080800037EE010015D0010037EE010037EE010098
:10809000F9D0010099EB0100B1ED010037EE0100CC
:1080A00037EE010037EE0100000000000000000084
:1080B00000000000000000000000000000000000C0
:1080C000164B002B00D1144B9D46402292029A1A67
:1080D000924600218B460F461348144A121A00F0AC
:1080E00067F80F4B002B00D098470E4B002B00D0A9
:1080F00098470020002104000D000D48002802D000
:108100000C4800E000BF00F02DF82000290002F02C
:10811000B9F800F011F8C046000008000080002007
:108120000000000000000000DC2000206429002086
:108130000000000000000000084B10B5041C002BDC
:1081400002D0002100E000BF054B1868836A002BB5
:1081500000D09847201C01F01DFFC0460000000021
:10816000F41E02000E4B70B500251E1C0D4CE41AC7
:10817000A410A54204D0AB00F35898470135F8E7A6
:1081800009F0AAFE084B00251E1C084CE41AA41096
:10819000A54204D0AB00F35898470135F8E770BD0D
:1081A000DC200020DC200020DC200020DC2000205F
:1081B000031C8218934202D019700133FAE770470A
:1081C000F0B58BB0141C1D1E129906DA802424060B
:1081D0002B191D1C141C2D2300E000230B702023E1
:1081E000149E03229E43462E07D0331C453B594222
:1081F0004B411099013ACB181093109B00920193B8
:10820000139B221C029308AB039309AB04932B1C12
:1082100000F0E6FC071C472E02D1119BDB072CD592
:10822000109BFB180793462E14D13B78302B0CD1B2
:10823000201C291C0022002306F09AFF002804D1EC
:108240000123109A9B1A139A1360139B079A1B68B9
:10825000D3180793201C291C0022002306F088FF56
:10826000002801D0079B0993099B079A934204D2E7
:108270005A1C099230221A70F6E7381C099B159A8D
:10828000DB1B13600BB0F0BDF7B52B23071C0C1CD8
:108290000270861C002901DA2D234C427B70092CC8
:1082A0001CDD6B46DD1D201C0A2106F045FF013D4B
:1082B00030312970201C0A2106F058FE041E092CBA
:1082C000F1DC013D30342C706B460733301CAB427F
:1082D00009D92B78013533700136F5E73023E418DE
:1082E0003370B01C7470C01BFEBD0000F0B593B0BD
:1082F0000C1C08920993189E051C01F071FA036882
:10830000181C0B9300F0DEFB0023216810930C90E7
:10831000277E33680722C90501D59B1800E0073383
:1083200093431A1C083232601A685B68A264E364E3
:10833000A06CE16C00F09EFB012818D1A06CE16CF0
:108340000022002306F01AFF002803D0231C2D2250
:1083500043331A70B64B0A93472F01D9B54B0A9392
:1083600003232268236101339A43226012E0A06C48
:10837000E16C00F07FFB266800280DD1AE4B0A931C
:10838000472F01D9AD4B0A930323311C23610133DD
:1083900099432160002680E080216068C900431C69
:1083A00001D1062309E0A26CE36C672F01D0472FAF
:1083B00004D1002800D0C0E1012363606368314329
:1083C0000093232321600191002106AA9B180293A8
:1083D0000FAB039310AB05930497A26CE36C06916B
:1083E000281CFFF7EDFE20233A1C0A909A43472AE7
:1083F00007D10F9BDA1C02DB626893422DDD023F3E
:10840000FFB20F99652F12D8201C01393A1C503049
:108410000F91FFF739FF109A061C83182361012A78
:1084200002DC2268D2072ED5013323612BE0662FB0
:1084300014D16368002908DD2161002B02D1226874
:10844000D2071DD50133CB1811E0002B03D1012237
:108450002168114213D09A1C11E067270F9B1098D6
:10846000834206DB22682361D20709D501332361E9
:1084700006E00122002B01DC0221CA1A82182261C7
:1084800000260F9BA365232306AA9B181B78002BAD
:1084900003D0231C2D2243331A70099B281C009300
:1084A000211C089B11AA00F05FF9431C02D1012096
:1084B000404256E12268530504D4281C08990A9AC0
:1084C000236916E1652F00D8D4E0A06CE16C00228E
:1084D000002306F04DFE00282BD00123281C08990C
:1084E000574A099EB047431CE1D00F9B109A934214
:1084F00007DB2368DB0704D423689B0700D51AE158
:1085000013E1099E281C08990B9A0C9BB047002682
:10851000431CCCD0109B013B9E42EDDA221C012370
:10852000281C08991A32099FB847431CBFD001364E
:10853000F0E70F9B002B2BDC0123281C0899404AF5
:10854000099EB047431CB2D00F9B002B05D1109B56
:10855000002B02D12368DB07CED5099E281C089981
:108560000B9A0C9BB0470026431CA0D00F9B281CE5
:108570005B4208999E4208DA221C01231A32099FA5
:10858000B847431C93D00136F0E70A9A109BB0E03D
:10859000109BA66D9E4200DD1E1C002E01DC0023F8
:1085A00014E0331C281C08990A9A099FB847431CF9
:1085B000F5D17CE7221C0123281C08991A32099F57
:1085C000B847431C00D172E70D9B01330D93F34371
:1085D000A26DDB170D993340D31A9942EADB0A9B4F
:1085E0009E180F9B109A93420EDB2368DB070BD477
:1085F000109B0A9AD7180F9ABF1B9B1A9F4200DD47
:108600001F1C002F09DC11E00C9B281C08990B9AF9
:10861000099FB847431CEBD149E7321C3B1C281C7F
:108620000899099EB047431C00D140E7002315E09C
:10863000F81E0200FC1E0200001F0200041F0200C0
:10864000081F0200221C0123281C08991A32099EC7
:10865000B047431C00D12AE70A9B01330A930F9AC3
:10866000109B9A1AFB43DB173B40D31A0A9A9A4293
:10867000E8DB41E7109B281C0899012B02DC012351
:108680001A423CD001230A9A099FB847431C00D1E3
:108690000DE70C9B281C08990B9A099FB847431CAF
:1086A00000D104E7A06CE16C0023002206F060FD1D
:1086B0000023002812D10A9A109B0132013B281C8A
:1086C00008991DE0221C0123281C08991A32099FD1
:1086D000B847431C00D1EAE60A9B01330A93109B7A
:1086E0000A9A013B9A42EDDB221C281C331C089994
:1086F0005032099EB047431C00D0FDE6D7E60A9AE7
:10870000099FB847431CEFD1D1E6221C0123281C46
:1087100008991932099FB847431C00D1C7E60136B2
:10872000E368119A9B1A9E42EFDB119BE068984226
:1087300017DA181C15E00026F2E731432160019199
:108740002321009006A8091802910FA9039110A9EE
:108750000591002104970691281CFFF731FD0A902E
:1087600047E613B0F0BDC046F7B5171C01930A6980
:108770008B6800900C1C934200DA131C221C3B6097
:1087800043321278002A01D001333B6023689B06F4
:1087900002D53B6802333B60062523681D401ED08E
:1087A000231C43331B785A1E9341226892061CD522
:1087B0003020E1184031C870211C5A1C453109781D
:1087C000A21840320233D1700FE0221C012300981E
:1087D00001991932089EB047431C0ED00135E36859
:1087E0003A689B1A9D42F0DBDAE7221C0098019957
:1087F0004332089DA847431C02D10120404220E09B
:1088000006232068E1683A6803400025042B03D161
:108810008D1AEB43DB171D40A3682269934201DDEB
:108820009B1AED180027AF420ADA221C0123009898
:1088300001991A32089EB047431CDED00137F2E797
:108840000020FEBDF0B58BB006920A1C43320793A0
:10885000059004920A7E0C1C109B6E2A00D1A8E0A1
:1088600011D8632A22D009D8002A00D1B2E0582AB0
:1088700000D0C2E045310A707C4A4FE0642A1DD026
:10888000692A1BD0B9E0732A00D1A7E009D86F2A62
:1088900029D0702A00D0B0E0202209680A43226063
:1088A00037E0752A1FD0782A33D0A6E00E1C1A684C
:1088B0004236111D196013683370A1E021681A68EF
:1088C000080606D4490604D5111D19600023D55E9B
:1088D00002E0111D19601568002D3BDA2D23049A62
:1088E0006D42137036E021681A68080606D44906FE
:1088F00004D51568111D1960ADB202E0111D196093
:1089000015685A4B227E03930A276F2A1DD1082728
:108910001BE0221C782145321170554A19680392D8
:10892000081D226818600D68100602D4500600D594
:10893000ADB2D30702D520231A4322601027002DA1
:1089400003D1202322689A432260231C0022433350
:108950001A7002E00A27454B03936368A360002B5B
:1089600003DB0422216891432160002D02D1049E83
:10897000002B0ED0049E281C391C06F0EDFA039B38
:10898000013E5B5C281C3370391C06F05FFA051E43
:10899000F1D1082F09D12368DB0706D56368226966
:1089A000934202DC3023013E3370049B9B1B236106
:1089B0002BE009681A68080607D4490605D5111D79
:1089C00019601368A28A1A8004E0111D19601368E7
:1089D00062691A600023049E236116E01A68111D63
:1089E000196016680021301C626800F007FF00283B
:1089F00001D0801B6060636803E0261C4236327041
:108A0000012323610023049A1370079B05980093A8
:108A1000211C069B09AAFFF7A7FE431C02D10120D7
:108A2000404221E0236905980699321C079DA8471A
:108A3000431CF4D023689B0705D4099BE068984247
:108A400012DA181C10E00025E368099A9B1A9D426F
:108A5000F3DA221C0123059806991932079EB047C4
:108A6000431CDCD00135EFE70BB0F0BD0A1F02005C
:108A70001B1F020030B50C1C0223044317D08024B6
:108A80002406A14201D1002811D00A4B490049080F
:108A9000094ACC180423944209D9084A013B91425F
:108AA00005D9074A0023914201D143424341181C92
:108AB00030BDC0460000F0FFFFFFDF7FFFFF0F006B
:108AC0000000F07F0023C25C0133002AFBD1581E56
:108AD0007047F0B503690C6989B00026A3427CDBBE
:108AE0000B1C013C1433A50003935B190493031C76
:108AF000143301935D19049B07911B680290591C64
:108B00002868059306F0A2F9071EB74235D0039BEB
:108B100001989C460596634604CB91B27943120CAA
:108B20007A4371180E0C9C46B318069302881E0CEB
:108B3000059B89B2D2180368521A190C6B461B8B1D
:108B4000CB1A11145B18191492B21B041A43049B1C
:108B5000059104C06345DED22B68002B0DD1231C88
:108B6000019A043D954203D8029A1C1C136104E04B
:108B70002A68002AF8D1013BF2E70298079901F030
:108B800063F8002828DB00200199039A013720CAE6
:108B90000B881818ABB2C31A08682D0C000C451BC3
:108BA0001E14AD1928149BB22D042B4308C1049B3D
:108BB0009342ECD2019AA300D3181A68002A0BD171
:108BC000019A043B934202D8029B1C6104E01A689C
:108BD000002AF9D1013CF3E73E1C301C09B0F0BD7E
:108BE000F0B5161C1F1C446A9BB00890239D069686
:108BF0000797002C08D1102000F0F6FD089B586262
:108C0000446084600460C460089B5B6A1968002942
:108C10000BD05A68012393404A608B60089800F09B
:108C200039FE0022089B5B6A1A60079B002B05DA5D
:108C300001232B607B005B08079301E000232B607E
:108C4000079CC64B221C17931A409A4219D1C44B59
:108C5000229A1360069AC34B002A02D1240300D142
:108C6000C14B249A181C002A01D100F0B6FDD97816
:108C7000DA1C002900D005322499181C0A6000F083
:108C8000ACFD069E079F0022301C391C002306F015
:108C90006FFA051E0ED00123229A1360B34B249A5B
:108CA000181C002A01D100F098FDB14A24990A60ED
:108CB00000F093FD19AB009318AB01930898321C98
:108CC0003B1C01F047F861000A90490D09D03803B8
:108CD000A84C000B0443A848321C231C0E18169500
:108CE0001CE0189B199A9E18A44B9E4209DBA44BCA
:108CF000F018069BC340181CA24B9B1B9C402043B2
:108D000004E0A148069B801B8340181C08F0B8FAB9
:108D10009E4C021C0B190121013E1691101C191CBE
:108D200000229B4B07F0C0FE9A4A9B4B07F022FCA7
:108D30009A4A9B4B06F0B8FC041C301C0D1C08F032
:108D400063FA984A984B07F015FC021C0B1C201C78
:108D5000291C06F0A9FC041C0D1C08F01FFA291C94
:108D600003900022201C002306F008FA00280DD0F2
:108D7000039808F049FA021C0B1C201C291C06F061
:108D8000F7F943424341039AD31A03930123139300
:108D9000039B162B11D8854ADB00D3181868596835
:108DA000069A079B06F0FEF9002805D0039B013BBD
:108DB00003930023139300E01390189B9E1B002342
:108DC0000D93013E0E9604D50E9B5B420D9300233E
:108DD0000E93039B002B08DB039A0E9B944663447F
:108DE0000E93002312920F9307E00D9B039A9B1A98
:108DF0000D9353420F9300231293209B0125092BBF
:108E000027D8052B02DD0025043B2093209B981ECC
:108E1000032823D806F010F8020E0410002300E007
:108E200001231093219B002B21DC01230B93099339
:108E30001A1C1AE0002300E00123039A10939446C1
:108E4000219B63440B9301330993002B12DC012314
:108E500010E0002310952093013B02E001231093C2
:108E6000023B00220B9309931333219202E0219BD2
:108E70000B930993089A546A002262600432111C11
:108E80001431994204D86168520001316160F6E7FB
:108E90000898616800F0C6FC089B20605B6A1B684C
:108EA0000C93099B0E2B00D988E1002D00D185E1A0
:108EB000069B079C14931594039B002B30DD0F2217
:108EC0003A491340DB00CB185C681B680493059497
:108ED000039B02271D11EB060AD514981599344BF4
:108EE00015401A6A5B6A06F007FF06900791013782
:108EF0002F4C002D0DD0EB0708D50498059922685A
:108F0000636807F037FB0490059101376D10083452
:108F1000EFE706980799049A059B06F0EDFE49E0F5
:108F2000039B02275D42002D46D0149815990F230C
:108F30001E4A2B40DB00D3181A685B6807F01AFB47
:108F40001B4C2D11002D35D0EB0704D5226863682A
:108F5000013707F00FFB6D100834F3E70000F07FD6
:108F60000F270000351F02002C1F0200081F0200FF
:108F7000091F02000000F03F01FCFFFFEFFBFFFFB5
:108F8000120400000EFCFFFFEEFBFFFF000010FECE
:108F90000000F83F61436F63A787D23FB3C8608B7F
:108FA000288AC63FFB799F501344D33F481F0200D5
:108FB0001020020006900791139B002B1ED0069CE8
:108FC000079D0022201C291CCE4B06F0D7F8002854
:108FD00014D0099B002B11D00B9B002B00DCE9E087
:108FE000039B291C013B1193201C0022C64B07F058
:108FF000C1FA0137069007910B9D02E0039B099D82
:109000001193381C069B079C0493059408F0FCF808
:10901000049A059B07F0AEFA0022BC4B06F044FB15
:1090200006900791069E079F079BB94A9C18002D42
:109030001CD1049805990022B64B07F035FD321C6F
:10904000231C0490059106F0ADF8002800D063E2DF
:1090500004980599321CB04E079CB4466444231C06
:1090600006F08CF8002800D04CE2A3E0AB4A6B1E5F
:109070001099DB00D31800294ED01A685B680020D5
:10908000A74906F039FE321C231C07F00DFD049E93
:10909000059F0C9B069007910493391C301C08F027
:1090A0007DF8041C08F0B0F8021C0B1C301C391CA5
:1090B00007F0FAFC049B303401330493013B1C702D
:1090C000069A079B061C0F1C06F058F8002800D0D3
:1090D00061E3321C3B1C00208A4907F0E5FC069A3C
:1090E000079B06F04BF8002800D0CDE0049B0C9ABB
:1090F0009B1AAB425EDA069807990022824B07F072
:1091000039FA0022069007917F4B301C391C07F07A
:1091100031FA061C0F1CC0E718685968321C231C62
:1091200007F028FA049E059F0C9C0690079163198E
:109130000493391C301C08F031F8051C08F064F861
:109140000B1C021C391C301C07F0AEFC3035049B94
:1091500025700134061C0F1CA34224D1002206985E
:1091600007996F4B06F0A0FA021C0B1C301C391C2F
:1091700006F018F8002800D086E0069A079B002029
:10918000674907F091FC021C0B1C301C391C05F0D0
:10919000F5FF00280ED0049B013B1A78302A00D03E
:1091A000F9E20493F7E70022574B07F0E3F9061CB6
:1091B0000F1CBEE7149B159C06930794199B002B6C
:1091C00000DA86E0039A0E2A00DD82E0D300534ADB
:1091D000D3181E685F68219B002B14DA099B002BB3
:1091E00011DC00D090E1301C391C0022494B07F003
:1091F000C1F9069A079B05F0DFFF099F3E1C002876
:1092000000D083E18CE10C9B069C079D0493321CEB
:109210003B1C201C291C06F06FFD07F0BFFF0690C9
:1092200007F0F2FF321C3B1C07F0A4F9021C0B1CD8
:10923000201C291C07F038FC0B1C0499021C069802
:10924000013104913030013908700C980499091AE1
:10925000099881422ED1101C191C06F025FA321CE7
:109260003B1C041C0D1C05F09DFF002810D1201C88
:10927000291C321C3B1C05F07BFF002800D18CE22E
:10928000069BDB0704D488E2119B039300E0049360
:10929000049B013B1A78392A08D10C9A9342F6D1E3
:1092A000039B0133039330231370131C1A7801328C
:1092B0001A7072E2101C191C0022134B07F05AF9A5
:1092C00000220023041C0D1C05F052FF00289ED034
:1092D00063E2109A002A44D0209A012A0BDC169AE5
:1092E000002A02D00F4A9B1802E03623189A9B1AD4
:1092F0000F9D0D9C29E0099B5D1E0F9BAB4213DB6C
:109300005D1B18E00000F03F0000244000001C40FE
:109310000000C0FC000014400000C07C481F020098
:109320000000E03F330400000F9B0F95EA1A002570
:10933000129B9B181293099B002B04DA0D9B099A30
:109340009C1A002301E00D9C099B0D9A0898D218E5
:109350000D920E9A0121D3180E9300F03AFB061CD1
:1093600002E00F9D0D9C109E002C0CD00E9B002B3C
:1093700009DDA34200DD231C0D9AE41AD21A0D92D6
:109380000E9AD31A0E930F9B002B21DD109B002BFE
:1093900018D0002D10DD311C2A1C089800F0B0FBFD
:1093A000061C0A9A311C089800F01CFB071C0A993D
:1093B000089800F06FFA0A970F9B5A1B08D008987C
:1093C0000A9902E008980A990F9A00F099FB0A900E
:1093D0000898012100F0FDFA129B071C002B0ADD02
:1093E000391C1A1C089800F08BFB209B071C0025D9
:1093F000012B1BDC03E0209B0025012B12DC002548
:10940000069BAB420ED1079B1B03AB420AD1179BB5
:10941000079A134206D00D9B013501330D930E9B25
:1094200001330E93129B0120002B08D03B690333BC
:109430009B00FB18586800F082FA2023181A0E9B34
:10944000C0181F23184009D001331B1A042B02DD5A
:109450001C23181A03E0042B08D0181C1C300D9B89
:1094600024181B180D930E9B1B180E930D9B002B9D
:1094700005DD08980A991A1C00F094FB0A900E9BCF
:10948000002B05DD391C08981A1C00F08BFB071C0B
:10949000139B002B1ED00A98391C00F0D5FB002826
:1094A00018DA039B0898013B03930A9900230A22C8
:1094B00000F009FA109B0A90002B00D17FE1311CCB
:1094C000002308980A2200F0FEF90B9B061C002BD3
:1094D0003CDC7DE1099B002B2EDC209B022B2BDD4D
:1094E000099B0B930B9B002B10D1391C089805226C
:1094F00000F0E9F9071C0A98391C00F0A5FB0028C8
:109500000EDC03E02F1C00E000273E1C219BDB4308
:1095100003930C9B04930CE02F1C2E1C119B0393B4
:109520000C9B0C9A0133049331231370039B01337A
:109530000393099600261AE1109B002B04D1099B86
:109540000B930C9D0A9CD0E0099B0B93002C05DD2E
:10955000311C0898221C00F025FB061C0996002DE2
:1095600012D07168089800F05DF9311C041C336951
:109570000C319A1C92000C3000F04BF90898211C19
:10958000012200F00FFB09900C9B0C9A0E930B9B91
:109590000A9C013BD3181093391C201CFFF799FA41
:1095A000031C0F903033311C201C0D9300F04CFB3A
:1095B000391C0B90099A089800F061FB0123049371
:1095C000C368051C002B04D1201C291C00F03CFBA7
:1095D00004900898291C00F05DF9049B209A13431D
:1095E00010D1069A013313420CD10D980A943928F0
:1095F0003DD00B9B002B01DD0F9831300E9B0133CA
:1096000004933EE00B9B002B05DA049B0D9D0A940E
:10961000002B09DC1CE00B9D209B1D431ED1012368
:10962000069A13421AD1F0E7211C0898012200F093
:10963000B9FA391C0A9000F007FB002803DC07D1B7
:109640000D9BDB0704D50D9B392B10D01D1C01355C
:109650000E9B013304930E9B1D7088E00E9B5D1CD6
:10966000049B002B10DD0D9B0A94392B06D10E9B19
:109670000E9A013304933923137060E00D9804951A
:1096800001300E9B187072E06A463421521812782D
:109690000E9B04951A70109A93423FD0211C0A2207
:1096A0000023089800F00FF9099B041C311C08984E
:1096B0000A229E4205D1002300F005F9061C0990FC
:1096C0000AE0002300F0FFF80999061C0A22089816
:1096D000002300F0F8F809900E955DE7211C08982A
:1096E0000A22002300F0EFF8041C201C391CFFF7AD
:1096F000F0F934226B4630309B180D901B780B9A92
:109700002B700C9B0135EB1A9342E7DB131E00DC38
:109710000123099600260C9AD3180493211C08985B
:10972000012200F03FFA391C0A9000F08DFA00285F
:1097300005DC15D10D9BDB0701D411E00493049BDC
:10974000013B1A78392A08D10C9A9342F6D1039B2F
:10975000013303933123137009E001321A7006E0DC
:10976000049B013B1A78302A01D10493F8E708984A
:10977000391C00F08FF8099B002B0ED0002E05D06D
:109780009E4203D00898311C00F084F8089809998B
:1097900000F080F801E0119B039308980A9900F00B
:1097A00079F80023049A0C981370039B229A0133D2
:1097B0001360249B002B10D0049A1A600DE00B9BC1
:1097C000002B00DDBDE6209B022B00DD8AE6B8E61B
:1097D000209B022B00DD85E6B8E61BB0F0BDC0463D
:1097E000004870476420002008B5034B011C18682E
:1097F00000F058FB08BDC04660200020C9B28218A6
:10980000904204D003788B4202D00130F8E7002068
:109810007047002310B5934203D0CC5CC45401338D
:10982000F9E710BD70B5466A041C0D1C002E07D167
:109830001020FFF7D9FF6062466086600660C66050
:10984000666AF368002B09D0626AAB00D268D3184D
:10985000186800280ED002681A6017E0201C042146
:10986000212200F0CBFA636AF060DB68002BEBD1B9
:1098700000200EE001210E1CAE40721D9200201C43
:1098800000F0BCFA0028F3D0456086600023036135
:10989000C36070BD70B5456A061C0C1C002D07D155
:1098A0001020FFF7A1FF7062456085600560C5600C
:1098B000002C07D0726A6368D2689B00D3181A68BC
:1098C00022601C6070BDF7B51E1C14239C46071C4B
:1098D0000C1C00200D698C44634619881B68514399
:1098E0001B0C534389190E0CF31889B21E0C1B0470
:1098F0005B186146013008C18C46A842ECDB002EA3
:109900001BD0A3689D4212DB6368381C591CFFF70B
:1099100089FF211C236901909A1C0C3192000C30A4
:10992000FFF777FF211C381CFFF7B4FF019C2B1DAC
:109930009B00E31801355E602561201CFEBD0022FE
:10994000031C010C914201D103041032190E01D104
:1099500008321B02190F01D104321B01990F01D1EA
:1099600002329B00101C002B03DB20205B0000D583
:10997000501C70470722036810B5011C1A400CD018
:1099800001240020234223D10222134203D0E340CA
:10999000201C0B601CE09B0818E098B2002801D145
:1099A00010221B0CD8B2002801D108321B0A18075C
:1099B00001D104321B09980701D102329B08D80754
:1099C00004D45B082020002B02D00132101C0B6055
:1099D00010BD10B50C1C0121FFF724FF01234461C9
:1099E000036110BDF0B50B69141C126989B00D1C20
:1099F000934201DA251C0C1C2F692669AA68BB1941
:109A000069680093934200DD0131FFF70BFF011CF1
:109A1000009B1431844698000B1C0818834202D224
:109A2000002204C3FAE71435BF00EB191434B60062
:109A30000493A31902950693069B9C4256D2238851
:109A40000393002B22D00E1C0027029B0193019B45
:109A5000039D04CB059601933388079393B26B4320
:109A6000079D120CEB183568DB192F0C039D6A4318
:109A7000BA181F0CD219170C9BB21204134308C654
:109A8000019A049B9A42E2D3059B5F6023681B0CFA
:109A9000019321D000220D1C0B68029F03923E8887
:109AA000019A9BB256432A680595120CB218039E80
:109AB0009219160433432B6008CF019E1B0C73438D
:109AC000AE88120C9B199B181A0C0392049A043549
:109AD000BA42E4D8059A536004340431ACE7043840
:109AE0000368002B05D1009B013B0093009B002BDA
:109AF000F5DC63466046009A1A6109B0F0BD0000CB
:109B00000323F7B51340051C0E1C141C002B07D0B3
:109B1000224A013B9B009A580023FFF7D4FE061C03
:109B2000A310019337D06C6A002C07D11020FFF7E7
:109B30005BFE6862446084600460C4606F6ABC68F5
:109B4000002C10D1281C1649FFF743FF0023B860F2
:109B5000041C036007E0019B5B1001931BD020688D
:109B600000280FD0041C019BDB07F4D5311C221CFC
:109B7000281CFFF737FF071C311C281CFFF78AFE43
:109B80003E1CE8E7281C211C221CFFF72BFF0023AA
:109B900020600360E6E7301CFEBDC04638200200AE
:109BA00071020000F0B50C1C171C2369551185B01B
:109BB000EB180193013300934968A3680290009A5F
:109BC0009A4202DD01315B00F9E70298FFF72AFEB5
:109BD000021C061C00231432AB4204DA0020990058
:109BE00050500133F8E7EB43DB171D40231CAD0059
:109BF00055192269143392009A1894461F2217406F
:109C000014D00132D21B039200221968281CB940DB
:109C10000A4304C504CB0399CA409C45F5D8426069
:109C2000002A07D0019B0233009303E004CB04C554
:109C30009C45FBD8009B0298013B3361211CFFF738
:109C400029FE301C05B0F0BD03690A6910B59B1AE6
:109C5000041C181E12D1930014341431E218C918D0
:109C6000043A043913680868834204D083429B4154
:109C70000120184302E0A242F2D8002010BDF0B546
:109C8000071C85B0081C0C1C111C151CFFF7DCFF01
:109C9000061E07D1381C311CFFF7C4FD01234661A5
:109CA000036155E000230193984204DA231C2C1C25
:109CB0001D1C01230193381C6168FFF7B3FD019B54
:109CC00026692F1CC3601434B300E318021C0293EE
:109CD0002B69002514379B00FB180393143208CC22
:109CE00069469C4608CF0432009363468B808B887C
:109CF0005D19009B9BB2EB1A65460193009B2D0CEE
:109D0000190C019B691A1D14131F9C466B464919B7
:109D10009B880D1409040B4361460B60039B9F4213
:109D2000DDD30299131C8C420BD208CC99B249198D
:109D30000D141B0CEB181D1489B21B040B4308C235
:109D4000EFE7043B1A68002A01D1013EF9E70661FA
:109D500005B0F0BDF7B51D1C0121089F141CFFF7CD
:109D600061FD2B036D00061C1B0B6D0D02D08022C4
:109D7000520313430193002C18D068460094FFF758
:109D8000F9FD009C002809D02023019A191A131C00
:109D90008B40C24023437361019200E07461019CD7
:109DA000B461631E9C410134346107E001A8FFF7F0
:109DB000E1FD0124019B346173612030002D06D048
:109DC0000B4BED1835232D183D60181A0BE0094B8D
:109DD000C018094B3860E3189B00F3185869FFF767
:109DE000AEFD6401201A099B1860301CFEBDC04600
:109DF000CDFBFFFFCEFBFFFFFFFFFF3F4A4338B520
:109E0000111C141C00F04EF8051E03D00021221C6A
:109E1000FEF7CEF9281C38BD30B500293ED00439F4
:109E20000B68002B00DAC9181D4A1368141C002B9C
:109E300002D14B60116031E099420DD208680A18D6
:109E40009A4203D11368C3180B6053684B602160BA
:109E500024E08A4203D8131C5A68002AF9D11D68ED
:109E60005C198C420BD10968691858181960904226
:109E700014D110685268091819605A600EE08C42BB
:109E800002D90C23036009E008680C18944203D13E
:109E900014685268001908604A60596030BDC046B5
:109EA000E0200020032370B5CC1C9C430834051C23
:109EB0000C2C01D20C2405E0002C03DA0C2300202A
:109EC0002B6042E08C42F9D3204A1368101C191C05
:109ED000002913D00A68121B0DD40B2A02D90A607C
:109EE0008B181FE08B4202D15A6802601BE04A685F
:109EF0005A600B1C17E00B1C4968E9E7144E3368E5
:109F0000002B03D1281C00F025F83060281C211CF0
:109F100000F020F8031C421CD0D00322C61C96433C
:109F200086420AD11C60181C07210B301A1D884379
:109F3000821A0AD05142995007E0311A281C00F0C9
:109F400009F8431CBAD0331CECE770BDE0200020B8
:109F5000DC20002038B50023064C051C081C2360BB
:109F600000F00AF8431C03D12368002B00D02B60BB
:109F700038BDC04614290020044A1368002B03D0C2
:109F800018181060181C7047014BF9E7E4200020F6
:109F900068290020FEE7C0460122014B1A70704775
:109FA000E8200020002370B51C4C0D1C081C1C4927
:109FB000237007F0B3FA002804D001232370023382
:109FC000637070BD281C174907F0A8FA002804D058
:109FD0000123237003336370F3E7281C124907F051
:109FE0009DFA061E03D0012323706370E9E7281C45
:109FF0000E4907F093FA002805D0012323704F3350
:10A0000066706360DDE7281C094907F087FA0028BD
:10A01000D7D001232370DB186370D2E73C290020DE
:10A020006020020068200200742002007C200200F0
:10A0300084200200012330B50E4AA12411681A1CA5
:10A040008A40111CA022181CD205E40011510A49B3
:10A050001D1C09688840011C0848115008490968FE
:10A060008D4015511C1C074909688C401450064A44
:10A07000136030BDAC200020B02000200C05000093
:10A08000B8200020B42000209C20002000B583B020
:10A09000002101A80422FEF78BF8074B074801A90D
:10A0A000019304F047FC002803D00021002200F0B7
:10A0B00015FC03B000BDC046A59F01004429002047
:10A0C000F0B55F4656464D464446FE23F0B485B093
:10A0D0009B0503A8039300F031FD002805D00398E9
:10A0E0005E4905F085F8002806D105B03CBC9046D5
:10A0F0009946A246AB46F0BD01210F1C584BA12248
:10A100009B461B680D1C9F40A023D200DB055548D1
:10A110009F50824600680C1C854053489D508146E4
:10A120000068844051489C50061C8046081C3668D4
:10A13000B0404F4E985031704E495F509D505C502A
:10A14000985000234C4A4D4C1360201C00213222B1
:10A1500001F020F81128F8D03223494F3B6000234A
:10A160003370201C0121322201F014F81128F8D09C
:10A170003223FA207B6000238000337001F0C6FD9B
:10A180003B680193201C0021002201F003F81128F4
:10A19000F8D000233B603370201C0121322200F0F4
:10A1A000F9FF1128F8D03223FA207B600023400009
:10A1B000337001F0ABFD6B461D79201C00212A1C79
:10A1C00000F0E8FF1128F8D0FF23019A1A4000237D
:10A1D00001923A603370201C01212A1C00F0DAFF42
:10A1E0001128F8D0019B5A467B600023337001335D
:10A1F00011681A1C8A40A125111CA022ED00D2056D
:10A2000051515146181C09688840011C19481150C9
:10A2100049468446181C0968884041465051181C1C
:10A2200009688840011C60461150134A1360201CC5
:10A230000021502200F0AEFF1128F8D050233B60DF
:10A2400000233370201C0121502200F0A3FF1128AD
:10A25000F8D050237B600023337046E70000A04114
:10A26000AC200020B0200020B8200020B420002026
:10A27000A02000200C0500009C200020D02002001F
:10A28000A4200020F0B55F4656464D4644460023C4
:10A29000F0B48BB00093002006210522E64B03F0BA
:10A2A000B3F9002800D05EE200F08EFB00F020FB46
:10A2B000FFF7ECFE00F0EAFB00F05CFB022004F08C
:10A2C00051F8002800D037E201F092FD002800D0BC
:10A2D0003BE202F0F5F8002800D03FE200F0AAFBD4
:10A2E000D64807F001F9A0220321D54BD2059B46A1
:10A2F0001B6805ADC133FF339B009950D14B984685
:10A300001B68C133FF339B009950CF4B99461B68A4
:10A31000C133FF339B009950CC4B9A461B68C13325
:10A32000FF339B009950FFF785FEC94BC9481B6856
:10A330000593C94B1B68069302230893FA239B00DD
:10A34000099301232B726B7207F0CEF8C34C291CC2
:10A35000201CC34A00F0DAFF002800D0E7E1C14822
:10A3600007F0C2F8201C01F035FAA0258022A323B3
:10A370009203DB00ED05EA5000F062FCA126BA482A
:10A3800007F0B2F80027FFF755FEF60000F0BCFB1F
:10A3900000281FD0002F00D135E1B44B1B78002BD3
:10A3A0002CD18027BF03AF51642001F0AFFCB04B2C
:10A3B0006420EF5001F0AAFCAF51642001F0A6FC2C
:10A3C000AB4B6420EF5001F0A1FC012700F09CFB97
:10A3D0000028DFD1002F00D054E18027FFF770FE66
:10A3E000FA20BF03AF51400001F090FCFA20A04BCF
:10A3F0004000EF5001F08AFC0027C7E79B4B5B78D9
:10A40000042B42D89B4A9B00D3589F469A4B5B68CB
:10A410000393201C0121002200F0BCFE1128F8D07B
:10A420000023954A5360954A1370201C0021322264
:10A4300000F0B0FE1128F8D032238F4AFA201360C2
:10A4400000238E4A4000137001F060FC6B461F7BB6
:10A45000201C00213A1C00F09DFE1128F8D0FF239B
:10A46000039A1A40844B03921A600023834A1370A4
:10A47000201C01213A1C00F08DFE1128F8D07E4BE3
:10A48000039A5A6000237D4A13700023774A1370A1
:10A4900087E77B4B58461B68006803935A42534139
:10A4A0000122111CDBB28140002B00D02EE170484C
:10A4B00047462950111C3F68B9404F46A951111C0D
:10A4C0003F68B9402950514609688A40AA516C4AF0
:10A4D0001360DAE7012359461A1C09688A4041468D
:10A4E000AA511A1C09688A404946AA511A1C0968CF
:10A4F0008A405146AA511A1C09688A40AA515F4AEB
:10A500001370C2E75E4B58461B68006803935A1EDF
:10A5100093410122111CDBB28140002B00D0E4E00A
:10A52000534847462950111C3F68B9404F46A9512E
:10A53000111C3F68B9402950514609688A40AA5108
:10A540004F4A1360494B5B680393DFB2201C002124
:10A550003A1C00F01FFE1128F8D0FF23039A134085
:10A56000454A13600023454A1370404B5B680393D0
:10A57000DFB2201C01213A1C00F00CFE1128F8D09B
:10A58000FF23039A13403C4A536000233B4A137055
:10A590007BE7394B1B680393201C0021002200F04D
:10A5A000F9FD1128F8D00023334A1360334A1370A1
:10A5B000201C0121322200F0EDFD1128F8D03223B9
:10A5C0002D4AFA20536000232C4A4000137001F0FA
:10A5D0009DFB6B461F7B201C00213A1C00F0DAFD1E
:10A5E0001128F8D0FF23039A1A40234B03921A60D4
:10A5F0000023224A1370201C01213A1C00F0CAFDDE
:10A600001128F8D03BE7012359461A1C09688A40F3
:10A610004146AA511A1C09688A404946AA511A1C87
:10A6200009688A405146AA511A1C09688A40AA51F1
:10A63000124A1370B1E6C046EC2000208C200200C4
:10A64000AC200020B0200020B8200020B420002042
:10A65000C02000209C200200BC200020D02002004E
:10A66000999F0100B0200200C02002003C29002078
:10A670000C05000044200200A4200020A02000209F
:10A680009C200020012359461A1C096848468A402C
:10A690004146AA511A1C09688A4035496A501A1C59
:10A6A000006882405046AA511A1C006882406A50D5
:10A6B000304A1360201C0021502200F06BFD11284D
:10A6C000F8D050232C4A136000232C4A1370201C0E
:10A6D0000121502200F05EFD1128F8D05023264AB7
:10A6E00053600023254A137077E64046A951111C98
:10A6F00000684F4681401E482950111C3F68B940F0
:10A70000A951514609688A402A5019E74046A95183
:10A71000111C00684F46814015482950111C3F68A4
:10A72000B940A951514609688A402A50CFE6002114
:10A73000002200F0D3F812E60021002200F0CEF84B
:10A7400001F056FB002800D1C3E50021002200F0F3
:10A75000C5F801F0B5FE002800D1BFE500210022B8
:10A7600000F0BCF8BAE50021002200F0B7F89BE544
:10A770000C0500009C200020A4200020A020002028
:10A7800076DF70477ADF70477CDF70477FDF704786
:10A79000A9DF704760DF70477047C04608B5011CED
:10A7A0000022024806F0A0FE08BDC046E8200200D4
:10A7B00008B50378002B00D008BD064B3B21188854
:10A7C000FFF7DEFF011EF7D00022034806F08CFEE3
:10A7D000F2E7C046C4200020E820020010B5041CA7
:10A7E00004F018F81848211C04F074F82388112B81
:10A7F00025D01ED9132B0ED0522B08D1134B00217C
:10A80000188800220023FFF7C3FF011E0CD1201C73
:10A8100003F0C8FE10BD0D4B8521188800220023CF
:10A82000FFF7B4FF011EF2D00022094806F05CFEDB
:10A83000EDE7102BEBD1A288044B1A80E7E7012249
:10A84000024B52421A80E2E744290020C420002033
:10A85000E820020038B50378012B03D0002B07D085
:10A86000022B04D141680022124806F03DFE38BD9B
:10A87000114C124D2078281801F000FA227801328C
:10A88000D2B2AB18013B1B7822700A2B01D0132ADD
:10A89000EDD992B2291C0A4804F050F90823021C91
:10A8A000011C9A4303D00348002206F01DFE00233A
:10A8B0002370DCE7E8200200A4230020A824002065
:10A8C0004429002008B5021C0249034806F00CFE8A
:10A8D00008BDC046EFBEADDEE820020008B5031C8F
:10A8E0000A1C0248191C06F0FFFD08BDE820020002
:10A8F0000F21012230B587B001AC237802AD8B4324
:10A90000134310220B4013432370184B281C1A6862
:10A9100002929A88AA809B79AB71FEF7D3F8291C22
:10A9200082B2201CFFF730FF011E19D104AC0021B8
:10A930000822201CFDF73CFC102323802C3363806D
:10A940000023A3809133FF33201CE380FFF71AFF1D
:10A95000011E03D00648002206F0C6FD07B030BD38
:10A960000022034806F0C0FDE0E7C04608210200CF
:10A97000E820020010B588B001AC00211C22201C88
:10A98000FDF716FCA02292026260F022002312035F
:10A99000A26003220193E3812374084B201C6361AE
:10A9A000074B2273A36103F0F9FE011E03D0054893
:10A9B000002206F099FD08B010BDC046B1A7010005
:10A9C0009DA70100E820020000B5174983B00820C8
:10A9D0004822002304F0BCF9011E1FD100210822E7
:10A9E0006846FDF7E5FB6B4601221B7868469343FA
:10A9F0006A461370FFF7CEFE011E0AD10B4804F021
:10AA0000CDF9011E03D00A48002206F06DFD03B007
:10AA100000BD0022064806F067FDEFE7002204486B
:10AA200006F062FDDAE7C046BC240020DDA7010085
:10AA3000E820020030B58BB003A8021C0E4B32CBCD
:10AA400032C20A2300226B441A800C4A0C49069237
:10AA500080225200079208910992009306A9094AA0
:10AA6000032300F0B3FF011E03D00748002206F0C5
:10AA70003BFD0BB030BDC046D8200200A82300200B
:10AA80000425002055A80100E8200200F0B51B496C
:10AA9000A5B003AF0CAD0C310422381CFEF7B9FE93
:10AAA00000213022281CFDF783FB0223002418AE6E
:10AAB00030222B7000210333301CEB70AC70FDF79B
:10AAC00077FB012304AA3382946013724023D3607E
:10AAD000743313617761546054619461D461311CA3
:10AAE0000094281C064B049403F07EFB011E03D047
:10AAF0000448002206F0F8FC25B0F0BDD820020082
:10AB000099A70100E8200200044B1888044B9C46DA
:10AB10006044431E9841C0B27047C046C420002024
:10AB20000100FFFFA0235B00984203D1024A136893
:10AB3000013313607047C04604260020012370B51E
:10AB4000041C181C364A374D11688840A021C905DD
:10AB5000485114200138C046C046C046C046C046D1
:10AB6000C046C046C046C046C046C046C046F1D1F9
:10AB7000181C1668B040A126F60088510C20013838
:10AB8000C046C046C046C046C046C046C046C04695
:10AB9000C046C046C046C046F1D1181C126890405D
:10ABA000485114200138C046C046C046C046C04681
:10ABB000C046C046C046C046C046C046C046F1D1A9
:10ABC0000022194DA2202A60184AC0001268934042
:10ABD0000A581A42FCD00022A020A2212A60C005F7
:10ABE000C90042581342FCD1114B28681D6804F07B
:10ABF00013FD291C04F0DEFB06F074FB0D4A0E4B1E
:10AC000005F0B8FC06F0C2FB0C49051C04F0F0FA94
:10AC1000002802D00120256070BD0020FCE7C0465E
:10AC2000CC2000200C05000004260020C8200020B5
:10AC3000D02000209CC420B07268913F0000C8431F
:10AC40000123191C10B5194AA32012680024914051
:10AC50000A1CA021C000C9050A50154A82B012681A
:10AC6000C132FF3292005450124A134C1268934082
:10AC7000124A0B508B50201C0021114A01F0C2FFD8
:10AC8000002803D000210022FFF728FE0D4B0E4ABA
:10AC9000201C1A600123FA2200930021520002F0C6
:10ACA0006DF8201C02F03AF802B010BDCC20002054
:10ACB000C8200020D4200020102102000C05000034
:10ACC00025AB0100D02000200000FA4110B500297A
:10ACD0000DD00923002A01D1181C10BD541E22409A
:10ACE000FAD1826001608480C2600023F4E70E2301
:10ACF000F2E7C046031C10B59C888068DA68121A17
:10AD00000420944200D210BDDA68002014401A6872
:10AD10001155DA680132DA60F5E7C04610B584688B
:10AD2000C268031C0520944209D098689A880240A2
:10AD30001868825C00200A709A6801329A6010BD1F
:10AD400070B5161C0C1C8D18002A05DD2078013406
:10AD500000F09CFFAC42F9D1301C70BD10B50C1C4A
:10AD6000201C00F08BFF0528FAD0012010BDC04642
:10AD700070B50D4B5A5C002A06D05A5C013AD2B22B
:10AD80005A545B5C002B00D070BD0C1C074D8E002C
:10AD900073590221586802F037F87359201C1B6858
:10ADA000DB699847F0E7C0466029002008260020AC
:10ADB000F8B55F4656464D4644462023F0B4056834
:10ADC000071CE85C884691469A4601F0CBFC21239B
:10ADD000E85C01F0C7FC43465C0044443B68A400C7
:10ADE0001E19307A01F0BEFC707A222601F0BAFCFE
:10ADF0004A4600237868414601F0AAFFA95D214830
:10AE000001F000FE01232C19207A9B468340A95DA6
:10AE1000181C01F077FE5B46607AA95D8340181C20
:10AE200001F070FE6368002B1BD05346EB5C0221DF
:10AE30007868984601F080FF134BAA5D9C46D200CB
:10AE4000011C6244404601F051FC2023E85C01F003
:10AE500071FC4B4663603CBC90469946A246AB46AB
:10AE6000F8BD5346EB5C414678689A4601F064FFB2
:10AE7000054BAA5D9C46D200011C6244504601F07D
:10AE800035FCE2E7FF3F000000F00140F0B55F460F
:10AE900056464D4644462023F0B483B004680192E0
:10AEA0008246E05C0D1C9B4601F05CFC21232227BE
:10AEB000E05C01F057FCE15D274801F0A3FD6B0069
:10AEC0005E1999460123B600A619307A9846834048
:10AED000E15D181C01F016FE4346707AE15D834087
:10AEE000181C01F00FFE019B002B22D05B46E35C97
:10AEF0000221984653465868A66901F01DFF174B7A
:10AF0000E25D9C46D200011C6244404601F0EEFB2B
:10AF10003604360C2023E05C01F00CFC4D44AD00FF
:10AF20006419666003B03CBC90469946A246AB46A5
:10AF3000F0BD5B46E65C5346291C586801F0FCFEF8
:10AF4000064BE25D9C46D200011C6244301C01F0BD
:10AF5000CDFB0026DEE7C046FF3F000004F00140C5
:10AF6000F8B55F4656464D464446F0B4222604687E
:10AF70000D1C071CA15D2E48914601F043FD2023C6
:10AF8000E05C9B461F3B98468340A15D181C01F086
:10AF9000B9FD2123E05C9A4643468340A15D181C1D
:10AFA00001F0B0FDA05D01F01BFD5B46E35C0321F9
:10AFB00078689B4601F0C0FE2A1C7B6810321B6833
:10AFC0009200011C9A18584601F090FB6B005D1925
:10AFD000AD0065196B68994519D35346E05C43464B
:10AFE0008340A15D181C01F00DFD2223E05C01F0FF
:10AFF000DFFC4B466B6078684A460321002301F072
:10B00000A7FE3CBC90469946A246AB46F8BD5346C7
:10B01000E35C03217868984601F08EFE061C2868E0
:10B0200000F0CEFF311C021C404601F05FFBDCE764
:10B03000FF3F0000F8B5564644465F464D46F0B423
:10B04000232403681E5D1B3C022E06D0201C3CBC42
:10B0500090469946A246AB46F8BD904692464A00B5
:10B060009146521892009A1852680F1C051C904580
:10B0700059D04168464849798346445CA4466046B5
:10B0800011240028E2D158464654002A12D099696A
:10B090008A420FD24346281C002B01D0884572D328
:10B0A000391C4246FFF7F2FE6868022101F09AFE61
:10B0B0000024CBE74246002A3BD09B6998455CD3ED
:10B0C00020232C68E05C01F04DFB2123E05C01F0C3
:10B0D00049FB4B46DB199B009B462B685B441E1CBF
:10B0E000187A01F03FFB707A01F03CFBA669B0458D
:10B0F0000CD35B4618592B6836045B44997A4B1E77
:10B100009941C9B200F06AFF330C9A46391C524685
:10B110000023686801F01CFE3B1C52464B4499001A
:10B1200063185A60C0E74268DB6950799847002489
:10B130008CE720232C68E05C01F014FB2123E05C09
:10B1400001F010FB4B46DE192B68B6009846B04460
:10B150004346187A01F006FB4346587A01F002FB99
:10B160002B68A0599C466644B37A59425941C9B2EA
:10B1700000F034FF00239A46C8E7281C391C4246D9
:10B18000FFF716FE90E7391C4246FFF7E9FE8BE712
:10B1900060290020F0B544465F4656464D46F0B45F
:10B1A000041C83B0884640680221171C01F0CAFDC8
:10B1B00023232568EE5C1B3B022E07D0181C03B02E
:10B1C0003CBC90469946A246AB46F0BD784364210C
:10B1D00003F03CFE030499461B0C9A4643465F006D
:10B1E000FB189B00EB18596863688A454CD05A7964
:10B1F000454B01929C469B5C9B465A461123002A74
:10B20000DCD1624683B201981654002911D0AA6994
:10B2100091420ED2201C4146002B01D092456ED3A4
:10B220001A1CFFF733FE6068022101F0DBFD0023EA
:10B23000C4E7002B2DD0AA6992455AD32023266853
:10B24000F05C01F08FFA2123F05C01F08BFA4346A9
:10B25000FB189B009B4623685B441D1C187A01F079
:10B2600081FA687A01F07EFAB569AA4534D24B4674
:10B270001D0C47440023606841462A1CBF0001F0B2
:10B2800067FDF3195D60CEE75879EB6998470023B5
:10B2900094E720232668F05C01F064FA2123F05C37
:10B2A00001F060FA4346FD182368AD009946A944B1
:10B2B0004B46187A01F056FA4B46587A01F052FA8A
:10B2C000236870599C466544AB7A00255942594120
:10B2D000C9B200F083FECCE75B46985923682D0481
:10B2E0005B44997A2D0C4B1E9941C9B200F076FE51
:10B2F000BFE7201C41461A1CFFF75AFD93E71A1CB2
:10B30000FFF72EFE8FE7C04660290020F0B55F46AC
:10B3100056464D464446F0B48BB000290DD0232349
:10B3200006680824F35C002B09D0201C0BB03CBC41
:10B3300090469946A246AB46F0BD0B24F5E79046F1
:10B340008946051C01F0BCF8002802D0043C852881
:10B35000EBD100F087FD002800D166E1FF23212218
:10B3600020270021301CF355B3540132B354233A43
:10B37000F172337273723260F17532757375F26007
:10B38000203001F0A9F8002800D092E1301C2130D3
:10B3900001F0A2F8002800D08BE1301C223001F02F
:10B3A000F9F9002800D00BE1002782464A46FBB29B
:10B3B0000393BB00D458631C00D18FE0D319232220
:10B3C0001B7A04932B689B469B5C002B00D1A2E167
:10B3D0005E4608242023F05CFF2801D001F01AF912
:10B3E0002123F05CFF2801D001F014F92223F05C46
:10B3F000FF2801D001F06AFA18239A46193B9946B2
:10B400000023FF279846B244307AFF2802D001F08B
:10B4100001F93772707AFF2802D001F0FBF87772D9
:10B420003068431C03D000F093FD4B463360434625
:10B43000F3720C365645E7D1686801F035FC74E7C5
:10B44000059B201C1C600C247C4300F09BFD201CF1
:10B450000830584401F040F8002800D075E1201C65
:10B460000930584401F038F8002800D06DE15C4400
:10B47000207A01F077F9607A01F074F9237A391CA7
:10B480006868069301F058FC059B0790186800F067
:10B4900097FD0799021C069801F028F902216868B7
:10B4A000647A01F049FC059B0690186800F088FD5D
:10B4B0000699021C201C01F019F9049B012B00D1F4
:10B4C0006FE10C236A467B43127C5B449A72012233
:10B4D000281CDA7203990022FFF7ACFD012F6DD111
:10B4E0004B46B24A1B695446934200D842E1590880
:10B4F000914200D840E19908914200D842E1D90830
:10B50000914200D83BE11909914200D843E1590921
:10B51000914200D83CE19909914200D835E1D9091E
:10B52000914200D83AE11B0A934200D8BEE09F49FD
:10B530005B0809228B4200D8B9E0002308A94B70B0
:10B540008B700333CB706B680A705B796868984ABC
:10B550004B6001F057FB071E6ED14B4668681969B6
:10B5600001F032FCB0618146686801F0E1FB012323
:10B5700000934A46686802219A46033301F0FEFBB5
:10B580000221686801F040FC4346F3616A6889491A
:10B590005379CF54126888498A4200D1D8E087494C
:10B5A0008A4200D1DAE086498A4200D1DCE0854A4D
:10B5B0009B009D5001222323F254B6E60127F5E6B5
:10B5C0002C68E05DFF2801D001F024F82123E05C25
:10B5D000FF2801D001F01EF82223E05CFF2801D0F3
:10B5E00001F074F918239846193BFF269946002765
:10B5F000A044207AFF2802D001F00CF82672607A6D
:10B60000FF2802D001F006F866722068431C03D0C0
:10B6100000F09EFC4B462360E7720C344445E8D1B1
:10B62000686801F041FB04247FE600F0E1FB03249D
:10B63000002800D079E691E620232C68E05CFF2802
:10B6400001D000F0E7FF2123E05CFF2801D000F0EB
:10B65000E1FF2223E05CFF2801D001F037F9182335
:10B660009846E7339946013BFF3B9A460026A044A3
:10B67000207AFF2803D000F0CDFF4B462372607A7A
:10B68000FF2803D000F0C6FF4B4663722068431CBE
:10B6900003D000F05DFC53462360E6720C34444551
:10B6A000E6D1686801F000FB3C1C3EE60822D2B2FD
:10B6B00043E720232C68E05CFF2801D000F0AAFFBC
:10B6C0002123E05CFF2801D000F0A4FF2223E05CEE
:10B6D000FF2801D001F0FAF818239846193BFF27FC
:10B6E00099460026A044207AFF2802D000F092FF5D
:10B6F0002772607AFF2802D000F08CFF6772206802
:10B70000431C03D000F024FC4B462360E6720C344B
:10B710004445E8D184E77A00D2199200111C5944BB
:10B720004B600591033306A90B722B68201C9C46C5
:10B730006244927A534253414B7201238B7208A99F
:10B7400000F098FB002800D17AE62E68042441E638
:10B7500052461D4B1A606B685B7928E752461B4BBB
:10B760001A606B685B7922E75246194B1A606B6866
:10B770005B791CE70022E0E60122D2B2DDE603227B
:10B78000D2B2DAE60222D2B2D7E60622D2B2D4E6AA
:10B790000522D2B2D1E60422D2B2CEE60722D2B23C
:10B7A000CBE6059B186800F037FC8AE6FF0F000027
:10B7B00071AD010060290020008000400090004031
:10B7C00000A00040082600200C8C00400C9C00408B
:10B7D0000CAC004010B50468406801F09FFA0222EA
:10B7E0002323E25410BDC04630B585B000F038FDCB
:10B7F00000282FD1274C2378DBB2002B05D0032B58
:10B8000001D10223237005B030BDA0220421224BB8
:10B81000D2009950012221481A608568C1688D4282
:10B8200022D02178022900D09A606B46D91DFFF7FB
:10B8300075FA002823D1C2218022174B89005A5063
:10B840006946C8791649585002212170C1218900E2
:10B850005A50D8E70F4A1378DBB2012B06D0022BDF
:10B86000D1D103231370CEE72270CCE700211170F1
:10B87000094AD3605360A023DB00D150C3E7012302
:10B88000054A02A8D360237002330370054B1B687E
:10B890009847B8E724260020002000401426002006
:10B8A0001C05000010260020842210B5414B5200D8
:10B8B000995884B000292DD18E223E4B52009958C0
:10B8C000002914D192223B4B5200995800290CD0E8
:10B8D000002199509021C9005A5802A85A500223B9
:10B8E0000370354B42601B68984704B010BD0021BF
:10B8F000324C99502278D2B2002AE3D0022A21D9C0
:10B90000032ADFD1023A2170DA605A60A022D20005
:10B910009950D7E700219950A322D2009958284C7A
:10B92000C9B2201CFFF7E6F900282AD1A268E36813
:10B930009B1A012BC0D1204A02AB18701268181C48
:10B940009047B9E71F488168C26891422DD022789C
:10B95000022A01D001229A606B46D91DFFF7DEF959
:10B96000002817D1C2218022124B89005A50694603
:10B97000C8791549585002212170C12189005A50B7
:10B98000A0E7012202AB1A700B4A03901268181C40
:10B99000904791E70123074AD3602370032302A84D
:10B9A0000370054B1B6898478CE70122DA60227010
:10B9B000F4E7C04600200040102600202426002086
:10B9C00028260020142600201C050000F0B55F4644
:10B9D00056464D464446F0B400279A4E89B037701B
:10B9E000994F3A600722002909D08A880D1C041C4F
:10B9F000096896480193FFF769F9021E07D0101CE9
:10BA000009B03CBC90469946A246AB46F0BD904B6F
:10BA1000AA89A968181C9846FFF758F9021EEED1AA
:10BA2000A02203216378D205C133FF339B009950D4
:10BA30002378C133FF339B0098506178854B864A49
:10BA400099502178854A9950A168854A9950627920
:10BA5000002A48D00E21834A99502379022B5FD0C7
:10BA6000012B43D0A02204217A4BD200995000220E
:10BA70000531FF315A507B4814315A501958013260
:10BA80009143195001216438494219500830195026
:10BA90009A601A603270129B1B88002B05D1724A83
:10BAA0001378591C1170129A13800121C222694B1C
:10BAB000494292009950A121043A89009950C0232B
:10BAC00004216A4A5B00D150019BC0209D01FF23E5
:10BAD000800014581D40664B2D0423401D43155013
:10BAE000116000228BE75F495A50B6E7A02104207D
:10BAF000584AC900505000210530FF301150143011
:10BB000011505848115819431150A221E078C9002A
:10BB10005050A07808395050936013603370BAE7E2
:10BB200000F0A0F9002804D100F062F9021E00D054
:10BB300065E700239946002304A90B804B468B70D0
:10BB400001234B70A0789A4600F094F9021E00D0B1
:10BB500055E7404B01229B46A22359465242DB0047
:10BB6000CA50A278083BCA503E4A8B5851460B43F4
:10BB700059468B50032305A90B704B464B708B70B5
:10BB8000CB703C4AE07800F057FA051C021E00D04A
:10BB900035E7E078012100F015FBE07800F060FB6C
:10BBA0003378DBB2002807D0012B0DD0022B00D058
:10BBB00071E7032333706EE7002B0ED0032B00D008
:10BBC00069E70223337066E74A4632705A46D3600B
:10BBD0005360A023DB00D5505DE7A0230422594623
:10BBE000DB00CA50524643460A609A68DB689A42B4
:10BBF0001AD03378022B01D052468A6002ABDC1D8A
:10BC00004046211CFFF78AF8002810D1C22180226B
:10BC1000104B89005A502078174958500221317032
:10BC2000C12189005A5036E75346337033E7012368
:10BC3000084A06A8D3603370023303703B68984704
:10BC400029E7C046242600201026002028260020B0
:10BC500014260020002000400C0500001405000000
:10BC6000240500006C050000D820002000E100E061
:10BC7000FFFF00FFE9B701001C05000008B5011C2B
:10BC80000148FFF74BF808BD2826002070B51A4D73
:10BC9000011C84B0281CFFF72DF8184C061C2378D3
:10BCA000DBB2012B02D0301C04B070BD2278022A16
:10BCB00001D0134A93606B46281CD91DFFF72EF85C
:10BCC00000280ED1C22180220D4B89005A506946AE
:10BCD000C8790C49585002212170C12189005A505D
:10BCE000E1E70123064A02A8D36023700233037000
:10BCF000054B1B689847D6E7142600202426002011
:10BD0000002000401C0500001026002082B0019099
:10BD1000019B002B14D0019B0A48013B0193013881
:10BD2000C046C046C046C046C046C046C046C046E3
:10BD3000C046C046C046C046F1D1019B002BEAD1A7
:10BD400002B07047E7030000F0B5002820DBFF27B2
:10BD50001B4B03229C463B1C8408C026C0B20240F9
:10BD6000D2009340A4006444B600A5599D438B01C2
:10BD70003B409340191C2943A1511F2318401E3BEF
:10BD80008340C022181C0E4B520098501860F0BD22
:10BD9000FF260C4A03249446321C0F23C0B20440F1
:10BDA000E400A2400340083B9B089B006344DD691C
:10BDB00095438A013240A240111C2943D961DCE736
:10BDC00000E100E000ED00E0074B1A780823002AAC
:10BDD00001D1181C7047002804D0044B5B78036025
:10BDE0000023F6E70E23F4E704270020382600207E
:10BDF00010B51A4C08202378002B00D010BD4C221F
:10BE0000FF21013BA3540132A1540132A35401325A
:10BE1000A3540132A354E362013223636363A36337
:10BE2000E36323646364A3640238FE39A35463604C
:10BE3000A360E36023616361A361E36123626362E2
:10BE4000A362FFF781FF8021C123054A9B000906F9
:10BE5000D150012300202370D0E7C04608270020DE
:10BE600000600040024B1878431E9841C0B27047F2
:10BE700008270020F0B50425314A041C1318283384
:10BE80005D570820013500D0F0BD8878002836D0F5
:10BE9000536801334DD0936801334CD0D3680133DC
:10BEA0004BD0136904200133EED10323254DA22783
:10BEB000AC461019283003719B00FF00D2180020F7
:10BEC0006344DE59204D50603540802608784A781A
:10BED000DD51DD5976031205AC4632400504C0261B
:10BEE000281CB60230400243F820151C40012202F3
:10BEF00010402A1C024360460243DA5101E0FE2250
:10BF00001A71231CA0220320C133FF339B00D205EA
:10BF100098504B78012B05D00120A0400B4BD050FE
:10BF20000020B1E7A3401C1CA123DB00D45000205B
:10BF3000AAE70023BAE70123B8E70223B6E7C04621
:10BF40000827002000600040FFE0ECFF0C05000027
:10BF50000B4B1A1828321279032A04D801219200B7
:10BF60009A1849425160FF221B1828331A71A023E6
:10BF7000C130FF308000FD3ADB05C2507047C0463B
:10BF8000082700200B4B10B5181804230A4AA221D9
:10BF900094462830C35603209B006344C9005A5876
:10BFA000064C104322435A50C046C046C046585023
:10BFB00010BDC0460827002000600040031F00009D
:10BFC000044B1818044B28309C4600798000C0B2FE
:10BFD0006044704708270020006000400B4B0C4A6B
:10BFE000181804239446A22210B52830C356D20054
:10BFF0009B0063449C58074820404C1EA141985028
:10C00000985809050143995010BDC04608270020E3
:10C0100000600040FFFFEFFF054A064B94460122F7
:10C020001818283003799B00DBB263441A6070470C
:10C030000060004008270020F0B5474680B45E4C01
:10C040000825231828331E797F2E03D8281C04BC0A
:10C050009046F0BDCD78AC46002D4CD065680135DA
:10C0600000D19EE0042300269846731C9D006719AA
:10C070007F68013748D0B31C98453AD99D006719AD
:10C080007F68013740D0F31C984532D99D0067196D
:10C090007F68013738D0331D43452AD29D00671988
:10C0A0007F68013730D0731D984522D99D006719EC
:10C0B0007F68013728D0B31D98451AD99D006719AC
:10C0C0007F68013720D0F31D984512D99D0067196C
:10C0D0007F68013718D0013398450AD99D00671948
:10C0E0007F68013710D00936B04502D9A36A013301
:10C0F00008D00425AAE76569013556D00A2304262D
:10C100009846B2E7092324252718DEB22837651997
:10C110003E716A606246002A02D1E3184433187106
:10C120008B78002B15D1031CA0254A78C133FF332F
:10C1300092009B00ED055A51CB78002B15D176B2B9
:10C14000A41944340B7822799B01134323710025F1
:10C150007CE7A022D2059446E025022783006344B1
:10C16000ED005A59BA435A51E6E7A22476B2134B6E
:10C17000B600F318E4000A781D591149000229405D
:10C180001951F82149010840061CC0211004021C65
:10C19000301C89021D590A401043284318510025BC
:10C1A00054E700261E716260BAE704251D712E1C3B
:10C1B00062612B1CB1E7C0460827002000600040E8
:10C1C000FFE0FCFF30B5234B1A182832147962B215
:10C1D000032A18DD9B1844331B799B09032B2CD0B1
:10C1E000012B33D0C025AD02A023DB059C46E02304
:10C1F00080006044DB00C45817492140C150C25838
:10C200002A43C25030BD032CFCD8144BA2259C46B7
:10C21000012390006044ED0044591C434451101C1C
:10C22000644600254030800080B205510029E9D0E5
:10C230009340C1229200A350E4E7A223A022DB0096
:10C24000D205D258012383401A42CBD18025AD02BA
:10C25000CAE7C04608270020FFFFFCFF006000403F
:10C26000A223A022DB00D205D358C340181C01230F
:10C2700018407047F0B544465F4656464D46F0B408
:10C28000834A83B013680024012B64D0814B1A6861
:10C29000012A6CD0804B1A68012A00D177E07F4BCD
:10C2A0001A68012A00D182E07D4B00271A68012A12
:10C2B00000D18DE023070BD0E30700D59EE0A30754
:10C2C00000D5AAE0630700D5B5E0230700D589E0D3
:10C2D000002C06DB03B03CBC90469946A246AB4618
:10C2E000F0BDE023DB009846C0239B0200246D4D87
:10C2F000994605E0032B00D1ADE00134062CE9D0CE
:10C30000231C4C33E95CC023081C98432B182833AA
:10C310001B795BB2032BF0DD9B00EB185A68002AF7
:10C32000EBD08B09A021C9058C46019383009C4466
:10C33000414663465B5849460B40012181401B0C36
:10C340000F42D7D0022BD8D1019B032B00D19BE009
:10C3500001999047D1E7C1215348890041580B42C8
:10C3600094D04C4B14601A680134012A92D1C12236
:10C370004D499200895802220A4200D18AE70021E1
:10C380001960454B14431A68012A00D087E7C1227F
:10C3900045499200895804220A4200D17FE70021D2
:10C3A00019603E4B14431A68012A00D07CE7C12271
:10C3B0003D499200895808220A4200D174E70021C1
:10C3C0001960374B14431A680027012A00D071E71F
:10C3D0001F6080231B061C43A022A223D205DB0082
:10C3E000D75867E7304A314B2E4DD058D158C0044A
:10C3F0008903C00E890F2B69984769E7A2232A4A4F
:10C40000DB00D058D158274DC00489036B68C00E9B
:10C41000890F9847A30700D454E7254B224A214DA2
:10C42000D058D158C0048903AB68C00E890F984713
:10C43000630700D449E7A3231B4ADB00D058D15837
:10C44000184DC0048903EB68C00E890F9847230775
:10C4500000D43DE7C6E7019B032B00D078E780239B
:10C460009B029A46414663465B5846469B46594660
:10C47000104B0B4061468B51634651469B59194303
:10C480000B1C61468B5163E7C0239B029A46E9E788
:10C490000061004004610040086100400C61004000
:10C4A0007C61004008270020006000401C0500005F
:10C4B00014050000FFFFFCFF36DF704737DF7047D1
:10C4C000044B85201A78002A00D0704701321A7078
:10C4D0000020FAE75C270020F0B55F4656464D463F
:10C4E00044460423F0B485B0994602ABDF1D002317
:10C4F0009A46434B0190434E00259B461DE0381C55
:10C50000FFF7DAFF022842D000285BD10124AC40BB
:10C51000264241D14346012B0AD062B63878FFF754
:10C52000CDFF0223021C9A4351D14B46002B41D030
:10C530000135A643EDB2002E3CD0534604223B7099
:10C54000314B90465B68DB05DB0DD8D0103BD9B290
:10C550004AB2002A40DB03249208C0322B499200E1
:10C5600023405258DB00DA401406A40FE3B2984689
:10C57000012CC4D1AC402642DAD0214B1B682342A7
:10C58000D6D11C431E4B1C60019B1D7010E072B67F
:10C590000124AC402642BDD05B461B682342B9D182
:10C5A0005A4623431360019B1D704346012B23D140
:10C5B00000239946484605B03CBC90469946A246A1
:10C5C000AB46F0BD00210022FEF788F99EE700216E
:10C5D0000022FEF783F9A8E70F230D4A03249446AF
:10C5E0000B40083B9B089B00634421405B68C900EB
:10C5F000CB401C06A40FB9E7002399468DE7C0463F
:10C6000060270020FF3F000000ED00E000E100E0B7
:10C6100018ED00E030B50124844083B0A304072066
:10C62000002B01D103B030BDA1232B4ADB00D45035
:10C6300000236A46D371294B04255B68DB05DB0DBB
:10C6400023D16B46D81DFFF737FF022836D00028CC
:10C6500016D1234A1368A3431360012D08D062B694
:10C660006B46D879FFF72AFF0223021C9A4301D1B7
:10C670000020D7E700210022FEF730F90020D1E7A3
:10C6800000210022FEF72AF9E3E7103BD9B24AB2B3
:10C69000002A15DB92081349C03292005258032138
:10C6A0000B40DB00DA4013069B0FDDB2012BC8D133
:10C6B0000B4A00201368A3431360B3E772B6C8E7C0
:10C6C0000F23094A0B409446083B9B089B00634498
:10C6D0005A680323E4E7C04600F0014000ED00E0A3
:10C6E0006027002000E100E018ED00E030B50029EF
:10C6F00008D0002A06D00123834007249D0403D1DB
:10C70000201C30BD0E24FBE7074C256808241D4281
:10C71000F6D0064BC0009C46A2236044DB00C1500B
:10C72000034B0024C250EBE76027002000F00140DB
:10C73000140500000123834007209A0B00D07047A6
:10C74000002B04D0044A013012681A42F7D0034A81
:10C75000034900208B50F2E7602700200405000009
:10C7600000F001400123834007209A0B00D070475E
:10C77000002B04D0054A013012681A42F7D0A122DA
:10C780000349D2008B500020F1E7C046602700200B
:10C7900000F00140F0B55F4656464D46444604233E
:10C7A000F0B485B0994602ABDF1D00239A46434B97
:10C7B0000190002503269B461DE0381CFFF77CFEF8
:10C7C000022842D000285BD10124AC40264241D14E
:10C7D0004346012B0AD062B63878FFF76FFE02237A
:10C7E000021C9A4351D14B46002B41D00135A64340
:10C7F000EDB2002E3CD0534604223B70304B9046A5
:10C800005B68DB05DB0DD8D0103BD9B24AB2002AF9
:10C8100040DB03249208C0322A4992002340525838
:10C82000DB00DA401406A40FE3B29846012CC4D111
:10C83000AC402642DAD0214B1B781C42D6D11C4397
:10C840001E4B1C70019B1D7010E072B60124AC40A1
:10C850002642BDD05B461B782342B9D15A462343BA
:10C860001370019B1D704346012B23D10023994671
:10C87000484605B03CBC90469946A246AB46F0BD42
:10C8800000210022FEF72AF89EE700210022FEF791
:10C8900025F8A8E70F230C4A032494460B40083BD5
:10C8A0009B089B00634421405B68C900CB401C0689
:10C8B000A40FB9E7002399468DE7C0465D27002005
:10C8C00000ED00E000E100E018ED00E00122F0B52D
:10C8D000141C0321844083B00723214202D1181C79
:10C8E00003B0F0BD2D4E013335782542F7D02C4BE7
:10C8F000C0009C466044426000236A46D371294BC5
:10C9000004275B68DB05DB0D16D16B46D81DFFF7EE
:10C91000D3FD02282CD000282DD1A5433570012F3E
:10C9200008D062B66B46D879FFF7C8FD0223021C17
:10C930009A4317D10023D2E7103BD8B242B2002A63
:10C940001FDB9208C0321848920012580B40DB00DF
:10C95000DA4013069B0FDFB2012BD6D1A543357009
:10C960000023BCE700210022FDF7B8FF0023B6E753
:10C9700072B63578D1E700210022FDF7AFFF357898
:10C98000CBE70F23094A03409446083B9B089B00D2
:10C9900063445A680B1C0340D9E7C0465D2700205A
:10C9A00000F0014000ED00E000E100E018ED00E0E3
:10C9B00001210A1C824010B50723940701D1181CDD
:10C9C00010BD054B1C7808231442F8D0034BC0005F
:10C9D000C1500023F3E7C0465D27002000F001406E
:10C9E0000122111C81400723890701D1181C7047BF
:10C9F000034BC0009C46604442600023F6E7C046FB
:10CA000000F00140012370B58B40032482B007225F
:10CA10001C4202D1101C02B070BD354A15780822A4
:10CA20001D42F7D0830B9B03013A002BF2D16A46DB
:10CA3000D371304B04255B68DB05DB0D24D16B46DD
:10CA4000061CD81D0C1CFFF737FD022839D0002822
:10CA500039D1294BA100CB18802109015A58B24382
:10CA60005A50012D08D062B66B46D879FFF726FDE3
:10CA70000223021C9A4301D10022CBE700220021AD
:10CA8000FDF72CFF0022C5E7103BDDB26AB2002A99
:10CA90001EDB9208C032194D920052592340DB0030
:10CAA000DA4013069B0FDDB2012BC8D1124B802256
:10CAB0009C468900120161448B5883438B500022AD
:10CAC000A8E772B6C5E700210022FDF707FFC0E71F
:10CAD0000F230B4A2B409446083B9B089B00634462
:10CAE0005A682B1C2340A340DA40D3B29B09DAE7F3
:10CAF0005D27002000ED00E000F0014000E100E0D3
:10CB000018ED00E0012370B58B40032482B00722AA
:10CB10001C4202D1101C02B070BD354A15780822A3
:10CB20001D42F7D0830B9B03013A002BF2D16A46DA
:10CB3000D371304B04255B68DB05DB0D24D16B46DC
:10CB4000061CD81D0C1CFFF7B7FC022839D00028A2
:10CB500039D18022284BA100CB18120198583043BC
:10CB60009850012D08D062B66B46D879FFF7A6FC25
:10CB70000223021C9A4301D10022CBE700220021AC
:10CB8000FDF7ACFE0022C5E7103BDDB26AB2002A19
:10CB90001EDB9208C032194D920052592340DB002F
:10CBA000DA4013069B0FDDB2012BC8D1124B89006E
:10CBB0009C46802361441B01CA581043C850002280
:10CBC000A8E772B6C5E700210022FDF787FEC0E79F
:10CBD0000F230B4A2B409446083B9B089B00634461
:10CBE0005A682B1C2340A340DA40D3B29B09DAE7F2
:10CBF0005D27002000ED00E000F0014000E100E0D2
:10CC000018ED00E0F8B5224E4379171CF25C041CC5
:10CC10000D1C0820002A00D0F8BD002934D01D4B7F
:10CC200022689A422ED00420E9782056FFF78CF82B
:10CC30006379194A69689B009950002F22D0174ADE
:10CC400021689F500122164F6878CB5910409343BA
:10CC50000343CB51032123680437DB59A8788B4366
:10CC6000084021680343CB510F2123680837DB5963
:10CC700028788B43084021680343CB516379002017
:10CC8000F254C9E70720C7E7064DDB00ED18C6E7F9
:10CC900074270020008000406C27002064270020BB
:10CCA00004050000182102001F22037970B513400B
:10CCB0001E3A111C99400B1C8021144C6350002417
:10CCC000437913499B005C50036812491A61437908
:10CCD0000568CA5480229200AE580F4B3340AB50C7
:10CCE000C223802205689B005202EA508022056818
:10CCF0009202EA5080220568D202EA50802205683A
:10CD00001203EA504379CC5470BDC04600E100E004
:10CD10006427002074270020F0F0FFFF0122022189
:10CD200003681A604379014AD15470477427002080
:10CD300001220368DA60704750310068890089B2C7
:10CD40004018704751310368FF318900C858704757
:10CD500030B5802464028C40002B09D1C2230568C1
:10CD60009B00EC5051310368FF318900CA5030BD3F
:10CD7000C12305689B00EC50F4E7C046F0B50226DD
:10CD800005AC27788024FF368E400568A4002D5915
:10CD9000B54306683551066835592B433351802316
:10CDA0005B028B40002F09D1C2240568A4002B51DF
:10CDB00051310368FF318900CA50F0BD0534056860
:10CDC000FF342B51F4E7C046A2230268FF20DB00AA
:10CDD000D358184080239B00C340181C4843400987
:10CDE0007047C0460B1C02685033944600229B00DB
:10CDF0009BB263441A6080235B028B40191CC123E1
:10CE000002689B00D150704780235B028B40191C45
:10CE1000C22302689B00D1507047C04608B5284B1A
:10CE20001A68002A05D0C122264992008A58D203E6
:10CE300028D4254B1A68002A05D0C1222149920026
:10CE40008A58920328D4214B1A68002A05D0C1229F
:10CE50001C4992008A58520328D41D4B1A68002A94
:10CE600005D0C122174992008A58120300D408BD88
:10CE70000022A6201A60174B40001968164B1B6849
:10CE80009847F4E70022A0201A60124B400019686E
:10CE9000114B1B689847CCE70022A2201A600D4B6B
:10CEA000400019680C4B1B689847CCE70022A4206F
:10CEB0001A60084B40001968074B1B689847CCE77D
:10CEC0004091004000900040449100404891004053
:10CED0004C9100406C2700206427002008B5284BA7
:10CEE0001A68002A05D0C122264992008A58D20326
:10CEF00028D4254B1A68002A05D0C1222149920066
:10CF00008A58920328D4214B1A68002A05D0C122DE
:10CF10001C4992008A58520328D41D4B1A68002AD3
:10CF200005D0C122174992008A58120300D408BDC7
:10CF30000022A6201A60174B40005968164B5B6808
:10CF40009847F4E70022A0201A60124B400059686D
:10CF5000114B5B689847CCE70022A2201A600D4B6A
:10CF6000400059680C4B5B689847CCE70022A4202E
:10CF70001A60084B40005968074B5B689847CCE73C
:10CF800040A1004000A0004044A1004048A1004052
:10CF90004CA100406C2700206427002080218023C2
:10CFA000184A8902D1508022D221174B520289009F
:10CFB0005A5040395A5001222F205A600138C04639
:10CFC000C046C046C046C046C046C046C046C04631
:10CFD000C046C046C046F1D19A6000230B4A2F20BC
:10CFE00013600138C046C046C046C046C046C04671
:10CFF000C046C046C046C046C046C046F1D1044AFD
:10D000001370704700E100E0001001407827002015
:10D01000A0270020A021F0B5002247462C4B490054
:10D0200080B45A5004315A5004315A5004315A5085
:10D030004C395A5004315A50264A17687A1C38D055
:10D04000254A00259B58254A254E14681C1B254B54
:10D050002402240A984601E07B1C1BD03268FB00A6
:10D060009446DB199B0063445A68A24212D8A41A62
:10D07000AD181F6A9A69D96943461B68002B1BD0FB
:10D08000101C98470028E7D000210022FDF726FC5D
:10D090007B1CE3D1144B15491A780B789A420ED0B9
:10D0A000134A9B009D5080218023124A49035B0054
:10D0B000D15004BC9046F0BD081C9047CCE701322B
:10D0C000D3B2022B01D00B70EAE700230B70E7E725
:10D0D0000010014090270020040500007827002060
:10D0E000802700207C2700208C2700208D2700200F
:10D0F0009827002000E100E0F0B55F4656464D4617
:10D100004446F0B4C94BCA4A1B68CA498DB007935C
:10D1100009781378994200D154E20133DBB2022B33
:10D1200000D11AE21370C44A9B009B58079A9C4690
:10D13000624406931302BD4A1B0A1360012308933D
:10D14000BE4B00251B681E1C0B93BD4B1B78191C86
:10D150000A1C0393BB4B013A1B68D2B20593BA4B2E
:10D1600002911868B14B02921B680A93B74B1B7867
:10D170000993331CFF2A3DD00599D200894691447A
:10D180004A46494612784978B44601904E468A424A
:10D1900028D077685400A418B8460132B778D2B2C4
:10D1A000BF1A781E8741E4007F4244443A40277802
:10D1B000022F00D1DAE0032F00D0D4E06046013026
:10D1C00000D1D0E063460198D900CB189B00C3186A
:10D1D0001D751B6A591CF7D11F1C01907178BC4644
:10D1E0008A42D6D1029A0198013AD2B26646029298
:10D1F000FF2AC1D1914A0A9913608C4A24241160F4
:10D2000069460919914A097805961170089A002A09
:10D2100000D0A4E10B9B059F9B1B5A1E9341DBB2E0
:10D22000069301235B429C46864B1B680493864B06
:10D230001E687E4B1B689B46804B1B680193834B8B
:10D240001B78029300239946039B013BDBB20393B7
:10D25000FF2B00D1FEE0049ADB0092469A4463461D
:10D26000013340D06346DC006444A4003419236ACF
:10D27000E0469C46A268E1685B467548D31A1B02EB
:10D280001B0A834266D85B1863604B46A360E36069
:10D2900001232375023B23627B1C00D1BDE0FB0010
:10D2A000DB199B00F318606859683D1C884209D857
:10D2B000A5E0D3009B189B00F3185968814200D366
:10D2C000A8E0151C1A6A401A531CF2D1EB005D1934
:10D2D000434622623A1CAD00751960602B62171C30
:10D2E00063460133BED1534652461B7852789A4268
:10D2F000AAD052465268580090465246C018013390
:10D30000DBB213709278C00040449A4200D189E0A9
:10D3100043683A1C98460378012BE0D14346DC0071
:10D320004444A4003419237D002BD8D18268A26024
:10D33000C168E160056925614069E06102980028E3
:10D340009AD0A36000225B464148D31A1B021B0AF5
:10D35000834298D95B469A1A1202120A8A4256D21E
:10D36000891A616091E76746BC4639E76468E00066
:10D37000071980460198BF008146BA46CA44504604
:10D38000007D67468146002800D128E761460131CB
:10D3900014D0644500D1CEE0049201989B4602E08F
:10D3A0009C4210D01F1CF900C919890041180B6A52
:10D3B0005A1CF5D15B466746049A019051460D759B
:10D3C0007178BC460CE7049A01905B46BC4200D1E0
:10D3D0009CE0444480466746A40044446068246A54
:10D3E00084460C62611CE9D00198E100804609196D
:10D3F0008900414448681F1C60444860DEE7091A00
:10D4000059604246434627620193171C68E74B4622
:10D4100063603AE7091A596058E743464246019368
:10D42000171C5DE753464A461A7071E778270020BB
:10D430008C2700208D27002098270020902700208F
:10D4400084270020882700208027002094270020A0
:10D45000FEFF7F00644B019A1A60059B9F4200D13A
:10D460006DE07B1C00D1BBE0604BFA00D7191B6854
:10D47000BF00DB195C685E485E4B5F4DC1585F4B77
:10D480002E781B68CA1A1202120A03329046002E26
:10D490001FD18026D1277602BF00C651403FC6511A
:10D4A000C0228027564EBF025200B7503760012677
:10D4B00006602F200138C046C046C046C046C04660
:10D4C000C046C046C046C046C046C046C046F1D170
:10D4D0002E704246A24200D2221CA820D21812026C
:10D4E000130A434AC000135042485B1A12581B02E9
:10D4F000521A1202120A03321B0A9A4223D98021BD
:10D5000080233F4A89025B00D1501CE06346DB0068
:10D51000634484460C1C9B0063441B6A1F1C581CFC
:10D5200000D05BE701273248876048460990002019
:10D530001F1C0A9052E7544653465146EDE7069B9E
:10D54000002B00D08DE700232E4A13700DB03CBC99
:10D5500090469946A246AB46F0BD0023E2E5234A39
:10D5600000241768012252429446002260469046E9
:10D57000721C1FD0F20092199200BA185168069DD1
:10D58000A94223D86B1A0693434653604346641856
:10D59000116913758C46136A002908D00799106227
:10D5A00061180902090A91606146301CD1601E1C95
:10D5B000721CDFD10C4A8446136001230596069342
:10D5C000371C31E6002306930893B9E584460648E4
:10D5D000491B03600123059651600693371C23E61F
:10D5E000FFF7DCFCAFE7C046902700208027002033
:10D5F0000010014004050000A0270020782700202B
:10D6000000E100E094270020F8B51E1C051C0F1C4B
:10D61000141C0720B30700D0F8BD002EFCD0FFF784
:10D62000BDFC2E4B069A1A602D4B1F702D4B1E60B1
:10D63000002F51D0331C0022F900C8198000301887
:10D640001A701A7524338342FAD1C91989007318E4
:10D650000321181C244A1830117061000919234A4B
:10D66000C900586040181360411800225961012117
:10D67000D86080209C709C729C74C5241A705A706B
:10D680001A725A721A745A74194B49421960194B1A
:10D6900040031A70184BA4001A70184B8132FF32E5
:10D6A00098501A590131FF318A433F390A431A51C0
:10D6B000A1221860C4201249D2008D5080001C584D
:10D6C000104A2240C024240222431A500E4B00204C
:10D6D000CA580E4B1A609FE70021B6E77C2700204E
:10D6E0008E27002080270020842700208827002004
:10D6F000902700208C2700208D27002000E100E0EB
:10D7000000100140FF00FFFF040500007827002003
:10D71000F0B5174B94461E68002E1DD0002A19D074
:10D72000002817D0134B1F78002F11D03378002B0F
:10D7300014D0341C0023243407E0261C2434251C78
:10D74000243D2D781A1C002D09D00133BB42F4DB97
:10D750000420F0BD0720FCE70820FAE7002201239F
:10D76000337063467170B36102600020F1E7C04618
:10D77000802700208E270020F0B5474680B43D4B1F
:10D780001C68002C47D03C4B1D780723854203D8EA
:10D79000181C04BC9046F0BD0429F9D9C3001B181D
:10D7A0009B00E41825780823012DF1D1637800242B
:10D7B000A046012B31D0314B10245B68DB05DB0D1B
:10D7C0002FD12F4B1D682D196B78AC785E1C341B44
:10D7D000671EBC41644226402C78B4421FD05C00D6
:10D7E000E3186C68DB00E4180423002CD0D0033B62
:10D7F00023706060234B2448C358E160A360434614
:10D800008021236180236261204A5B0049036E709E
:10D81000D1500023BCE70823BAE78846CBE70423AE
:10D82000B6E7103BDDB26CB2002C13DBA408174D39
:10D83000C034A400645903252B40DB00DC402306E0
:10D840009B0FDBB20024012BBBD00834032BB8D0D4
:10D850000834B6E70F230E4C2B40A446083B9B0828
:10D860009B0063445C6803232B40DB00DC40E3B295
:10D870009B09E6E7802700208E27002000ED00E0CE
:10D8800088270020040500000010014000E100E0AE
:10D8900018ED00E030B5334B1A68002A34D0324B13
:10D8A00019780723814201D8181C30BDC3001B180A
:10D8B0009B009A5C0823012AF6D12C4B0F325B683F
:10D8C000DB05DB0D24D12A4B196889184B788A783F
:10D8D0005C1CA21A551EAA41524214400A78A24268
:10D8E00014D05A00D3184A68DB00D2180423002A47
:10D8F000DAD0023B137050604C7080211D4AFE3319
:10D900004903D1500023CFE70823CDE70423CBE719
:10D91000103BD9B24AB2002A13DB92081549C03233
:10D920009200525803210B40DB00DA4013069B0F94
:10D93000DBB20022012BC6D00832032BC3D0083241
:10D94000C1E70F230C4A0B409446083B9B089B0001
:10D9500063445A6803230B40DB00DA40D3B29B09CF
:10D96000E6E7C046802700208E27002000ED00E07B
:10D970008827002000E100E018ED00E072DF70472A
:10D9800079DF70477DDF704765DF7047F0B55F4630
:10D99000564644464D46F0B485B09A460E9B061C4A
:10D9A00098461B788B4601930388171C002B40D0A8
:10D9B0000023994602AB0024DD1C03E033880134C8
:10D9C000A3422CDD7368A1009C460422614403A895
:10D9D000FBF71FFF03A8291C0022FFF7D5FF002833
:10D9E00028D12B78BB42E9D14B46002B29D04346A6
:10D9F0001A78D3191F2B34DC524403A8291CFFF7D3
:10DA0000C3FF002816D143461A782B780134D31867
:10DA100042461370012399463388A342D2DC4B4619
:10DA2000002B06D0434651461B78019A013B9B1AB6
:10DA30008B54002005B03CBC90469946A246AB46AC
:10DA4000F0BD43461B78DA191D2A0ADC41469A1CB0
:10DA50000A70524659460133DBB2D15443461A7814
:10DA6000CAE70C20E6E7C046F0B556464D464446A8
:10DA70005F460023F0B497B005AD02AA041C0E1C4B
:10DA80002B705373002800D11EE1C3785B0700D4CC
:10DA9000B2E00378002B00D0DAE18378002B00D0CD
:10DAA0000BE20023E278002A00D0ADE06268002A91
:10DAB0000FD011781C2B00DDFEE002220A2006AFF9
:10DAC000FA545A1CD2B2B854DA1C0233DBB22A70B0
:10DAD000F9542389002B00D00BE2238A002B00D0BD
